{
  "contractName": "Voting",
  "abi": [
    {
      "inputs": [
        {
          "internalType": "string",
          "name": "_eventName",
          "type": "string"
        }
      ],
      "stateMutability": "nonpayable",
      "type": "constructor"
    },
    {
      "anonymous": false,
      "inputs": [
        {
          "indexed": false,
          "internalType": "string",
          "name": "msg",
          "type": "string"
        }
      ],
      "name": "success",
      "type": "event"
    },
    {
      "inputs": [
        {
          "internalType": "uint256",
          "name": "",
          "type": "uint256"
        }
      ],
      "name": "candidateList",
      "outputs": [
        {
          "internalType": "string",
          "name": "name",
          "type": "string"
        },
        {
          "internalType": "string",
          "name": "uid",
          "type": "string"
        },
        {
          "internalType": "bool",
          "name": "registered",
          "type": "bool"
        },
        {
          "internalType": "address",
          "name": "candidateAddress",
          "type": "address"
        },
        {
          "internalType": "uint256",
          "name": "votes",
          "type": "uint256"
        }
      ],
      "stateMutability": "view",
      "type": "function",
      "constant": true
    },
    {
      "inputs": [
        {
          "internalType": "address",
          "name": "",
          "type": "address"
        }
      ],
      "name": "candidates",
      "outputs": [
        {
          "internalType": "uint256",
          "name": "",
          "type": "uint256"
        }
      ],
      "stateMutability": "view",
      "type": "function",
      "constant": true
    },
    {
      "inputs": [],
      "name": "eventName",
      "outputs": [
        {
          "internalType": "string",
          "name": "",
          "type": "string"
        }
      ],
      "stateMutability": "view",
      "type": "function",
      "constant": true
    },
    {
      "inputs": [],
      "name": "owner",
      "outputs": [
        {
          "internalType": "address",
          "name": "",
          "type": "address"
        }
      ],
      "stateMutability": "view",
      "type": "function",
      "constant": true
    },
    {
      "inputs": [],
      "name": "totalVote",
      "outputs": [
        {
          "internalType": "uint256",
          "name": "",
          "type": "uint256"
        }
      ],
      "stateMutability": "view",
      "type": "function",
      "constant": true
    },
    {
      "inputs": [
        {
          "internalType": "address",
          "name": "",
          "type": "address"
        }
      ],
      "name": "voterList",
      "outputs": [
        {
          "internalType": "bool",
          "name": "registered",
          "type": "bool"
        },
        {
          "internalType": "bool",
          "name": "voted",
          "type": "bool"
        }
      ],
      "stateMutability": "view",
      "type": "function",
      "constant": true
    },
    {
      "inputs": [],
      "name": "winnerAddress",
      "outputs": [
        {
          "internalType": "address",
          "name": "",
          "type": "address"
        }
      ],
      "stateMutability": "view",
      "type": "function",
      "constant": true
    },
    {
      "inputs": [
        {
          "internalType": "string",
          "name": "_name",
          "type": "string"
        },
        {
          "internalType": "string",
          "name": "_uid",
          "type": "string"
        },
        {
          "internalType": "address",
          "name": "_candidateAddress",
          "type": "address"
        }
      ],
      "name": "registerCandidates",
      "outputs": [],
      "stateMutability": "nonpayable",
      "type": "function"
    },
    {
      "inputs": [
        {
          "internalType": "address",
          "name": "_voterAddress",
          "type": "address"
        }
      ],
      "name": "whiteListAddress",
      "outputs": [],
      "stateMutability": "nonpayable",
      "type": "function"
    },
    {
      "inputs": [],
      "name": "startVoting",
      "outputs": [],
      "stateMutability": "nonpayable",
      "type": "function"
    },
    {
      "inputs": [
        {
          "internalType": "address",
          "name": "_candidateAddress",
          "type": "address"
        }
      ],
      "name": "putVote",
      "outputs": [],
      "stateMutability": "nonpayable",
      "type": "function"
    },
    {
      "inputs": [],
      "name": "stopVoting",
      "outputs": [],
      "stateMutability": "nonpayable",
      "type": "function"
    },
    {
      "inputs": [],
      "name": "getAllCandidateVotes",
      "outputs": [
        {
          "internalType": "string[]",
          "name": "uids",
          "type": "string[]"
        },
        {
          "internalType": "uint256[]",
          "name": "votes",
          "type": "uint256[]"
        }
      ],
      "stateMutability": "view",
      "type": "function",
      "constant": true
    },
    {
      "inputs": [],
      "name": "getAllCandidate",
      "outputs": [
        {
          "components": [
            {
              "internalType": "string",
              "name": "name",
              "type": "string"
            },
            {
              "internalType": "string",
              "name": "uid",
              "type": "string"
            },
            {
              "internalType": "bool",
              "name": "registered",
              "type": "bool"
            },
            {
              "internalType": "address",
              "name": "candidateAddress",
              "type": "address"
            },
            {
              "internalType": "uint256",
              "name": "votes",
              "type": "uint256"
            }
          ],
          "internalType": "struct Voting.Candidate[]",
          "name": "list",
          "type": "tuple[]"
        }
      ],
      "stateMutability": "view",
      "type": "function",
      "constant": true
    },
    {
      "inputs": [],
      "name": "votingStatus",
      "outputs": [
        {
          "internalType": "bool",
          "name": "",
          "type": "bool"
        }
      ],
      "stateMutability": "view",
      "type": "function",
      "constant": true
    },
    {
      "inputs": [],
      "name": "getWinner",
      "outputs": [
        {
          "internalType": "string",
          "name": "name",
          "type": "string"
        },
        {
          "internalType": "string",
          "name": "uid",
          "type": "string"
        },
        {
          "internalType": "uint256",
          "name": "votes",
          "type": "uint256"
        }
      ],
      "stateMutability": "view",
      "type": "function",
      "constant": true
    }
  ],
  "bytecode": "0x60806040523480156200001157600080fd5b5060405162002e6838038062002e68833981810160405281019062000037919062000307565b336000806101000a81548173ffffffffffffffffffffffffffffffffffffffff021916908373ffffffffffffffffffffffffffffffffffffffff16021790555080600290805190602001906200008f929190620000ba565b5060006003819055506000600460006101000a81548160ff02191690831515021790555050620003bc565b828054620000c89062000387565b90600052602060002090601f016020900481019282620000ec576000855562000138565b82601f106200010757805160ff191683800117855562000138565b8280016001018555821562000138579182015b82811115620001375782518255916020019190600101906200011a565b5b5090506200014791906200014b565b5090565b5b80821115620001665760008160009055506001016200014c565b5090565b6000604051905090565b600080fd5b600080fd5b600080fd5b600080fd5b6000601f19601f8301169050919050565b7f4e487b7100000000000000000000000000000000000000000000000000000000600052604160045260246000fd5b620001d38262000188565b810181811067ffffffffffffffff82111715620001f557620001f462000199565b5b80604052505050565b60006200020a6200016a565b9050620002188282620001c8565b919050565b600067ffffffffffffffff8211156200023b576200023a62000199565b5b620002468262000188565b9050602081019050919050565b60005b838110156200027357808201518184015260208101905062000256565b8381111562000283576000848401525b50505050565b6000620002a06200029a846200021d565b620001fe565b905082815260208101848484011115620002bf57620002be62000183565b5b620002cc84828562000253565b509392505050565b600082601f830112620002ec57620002eb6200017e565b5b8151620002fe84826020860162000289565b91505092915050565b60006020828403121562000320576200031f62000174565b5b600082015167ffffffffffffffff81111562000341576200034062000179565b5b6200034f84828501620002d4565b91505092915050565b7f4e487b7100000000000000000000000000000000000000000000000000000000600052602260045260246000fd5b60006002820490506001821680620003a057607f821691505b602082108103620003b657620003b562000358565b5b50919050565b612a9c80620003cc6000396000f3fe608060405234801561001057600080fd5b50600436106101005760003560e01c8063b13c744b11610097578063efd5297c11610066578063efd5297c14610293578063f0f801f3146102b1578063f1cea4c7146102cd578063fab2f86b146102eb57610100565b8063b13c744b14610206578063cf52a7b21461023a578063ed7a4e0b14610256578063ef66ad1a1461027457610100565b806388fb6f74116100d357806388fb6f741461017c5780638ab66a90146101985780638da5cb5b146101c85780638e7ea5b2146101e657610100565b806303b4caed1461010557806319f41a40146101365780631ec6b60a146101545780638043c9c01461015e575b600080fd5b61011f600480360381019061011a91906119de565b6102f5565b60405161012d929190611a26565b60405180910390f35b61013e610333565b60405161014b9190611a4f565b60405180910390f35b61015c61034a565b005b61016661042a565b6040516101739190611b03565b60405180910390f35b610196600480360381019061019191906119de565b6104b8565b005b6101b260048036038101906101ad91906119de565b61094a565b6040516101bf9190611b3e565b60405180910390f35b6101d0610962565b6040516101dd9190611b68565b60405180910390f35b6101ee610986565b6040516101fd93929190611b83565b60405180910390f35b610220600480360381019061021b9190611bf4565b610c66565b604051610231959493929190611c21565b60405180910390f35b610254600480360381019061024f91906119de565b610de9565b005b61025e611076565b60405161026b9190611b68565b60405180910390f35b61027c61109c565b60405161028a929190611e4c565b60405180910390f35b61029b611279565b6040516102a89190611fe0565b60405180910390f35b6102cb60048036038101906102c69190612137565b611477565b005b6102d56117e3565b6040516102e29190611b3e565b60405180910390f35b6102f36117e9565b005b60076020528060005260406000206000915090508060000160009054906101000a900460ff16908060000160019054906101000a900460ff16905082565b6000600460009054906101000a900460ff16905090565b60008054906101000a900473ffffffffffffffffffffffffffffffffffffffff1673ffffffffffffffffffffffffffffffffffffffff163373ffffffffffffffffffffffffffffffffffffffff16146103d8576040517f08c379a00000000000000000000000000000000000000000000000000000000081526004016103cf9061220e565b60405180910390fd5b6001600460006101000a81548160ff0219169083151502179055507f68f068b2f0d02fca99bc8285b62fce8668fe16b7c6a810351ea25bff358c0dd86040516104209061227a565b60405180910390a1565b60028054610437906122c9565b80601f0160208091040260200160405190810160405280929190818152602001828054610463906122c9565b80156104b05780601f10610485576101008083540402835291602001916104b0565b820191906000526020600020905b81548152906001019060200180831161049357829003601f168201915b505050505081565b60011515600460009054906101000a900460ff1615151461050e576040517f08c379a00000000000000000000000000000000000000000000000000000000081526004016105059061236c565b60405180910390fd5b60008054906101000a900473ffffffffffffffffffffffffffffffffffffffff1673ffffffffffffffffffffffffffffffffffffffff163373ffffffffffffffffffffffffffffffffffffffff160361059c576040517f08c379a0000000000000000000000000000000000000000000000000000000008152600401610593906123d8565b60405180910390fd5b60011515600760003373ffffffffffffffffffffffffffffffffffffffff1673ffffffffffffffffffffffffffffffffffffffff16815260200190815260200160002060000160009054906101000a900460ff16151514610632576040517f08c379a000000000000000000000000000000000000000000000000000000000815260040161062990612444565b60405180910390fd5b60001515600760003373ffffffffffffffffffffffffffffffffffffffff1673ffffffffffffffffffffffffffffffffffffffff16815260200190815260200160002060000160019054906101000a900460ff161515146106c8576040517f08c379a00000000000000000000000000000000000000000000000000000000081526004016106bf906124b0565b60405180910390fd5b600115156006600560008473ffffffffffffffffffffffffffffffffffffffff1673ffffffffffffffffffffffffffffffffffffffff168152602001908152602001600020548154811061071f5761071e6124d0565b5b906000526020600020906004020160020160009054906101000a900460ff16151514610780576040517f08c379a00000000000000000000000000000000000000000000000000000000081526004016107779061254b565b60405180910390fd5b6006600560008373ffffffffffffffffffffffffffffffffffffffff1673ffffffffffffffffffffffffffffffffffffffff16815260200190815260200160002054815481106107d3576107d26124d0565b5b906000526020600020906004020160030160008154809291906107f59061259a565b91905055506001600760003373ffffffffffffffffffffffffffffffffffffffff1673ffffffffffffffffffffffffffffffffffffffff16815260200190815260200160002060000160016101000a81548160ff02191690831515021790555060006006600560008473ffffffffffffffffffffffffffffffffffffffff1673ffffffffffffffffffffffffffffffffffffffff16815260200190815260200160002054815481106108aa576108a96124d0565b5b9060005260206000209060040201600301549050806003541015610911578060038190555081600160006101000a81548173ffffffffffffffffffffffffffffffffffffffff021916908373ffffffffffffffffffffffffffffffffffffffff1602179055505b7f68f068b2f0d02fca99bc8285b62fce8668fe16b7c6a810351ea25bff358c0dd860405161093e9061262e565b60405180910390a15050565b60056020528060005260406000206000915090505481565b60008054906101000a900473ffffffffffffffffffffffffffffffffffffffff1681565b60608060008060009054906101000a900473ffffffffffffffffffffffffffffffffffffffff1673ffffffffffffffffffffffffffffffffffffffff163373ffffffffffffffffffffffffffffffffffffffff1614610a1a576040517f08c379a0000000000000000000000000000000000000000000000000000000008152600401610a119061269a565b60405180910390fd5b6000600660056000600160009054906101000a900473ffffffffffffffffffffffffffffffffffffffff1673ffffffffffffffffffffffffffffffffffffffff1673ffffffffffffffffffffffffffffffffffffffff1681526020019081526020016000205481548110610a9157610a906124d0565b5b90600052602060002090600402016040518060a0016040529081600082018054610aba906122c9565b80601f0160208091040260200160405190810160405280929190818152602001828054610ae6906122c9565b8015610b335780601f10610b0857610100808354040283529160200191610b33565b820191906000526020600020905b815481529060010190602001808311610b1657829003601f168201915b50505050508152602001600182018054610b4c906122c9565b80601f0160208091040260200160405190810160405280929190818152602001828054610b78906122c9565b8015610bc55780601f10610b9a57610100808354040283529160200191610bc5565b820191906000526020600020905b815481529060010190602001808311610ba857829003601f168201915b505050505081526020016002820160009054906101000a900460ff161515151581526020016002820160019054906101000a900473ffffffffffffffffffffffffffffffffffffffff1673ffffffffffffffffffffffffffffffffffffffff1673ffffffffffffffffffffffffffffffffffffffff168152602001600382015481525050905080600001518160200151826080015193509350935050909192565b60068181548110610c7657600080fd5b9060005260206000209060040201600091509050806000018054610c99906122c9565b80601f0160208091040260200160405190810160405280929190818152602001828054610cc5906122c9565b8015610d125780601f10610ce757610100808354040283529160200191610d12565b820191906000526020600020905b815481529060010190602001808311610cf557829003601f168201915b505050505090806001018054610d27906122c9565b80601f0160208091040260200160405190810160405280929190818152602001828054610d53906122c9565b8015610da05780601f10610d7557610100808354040283529160200191610da0565b820191906000526020600020905b815481529060010190602001808311610d8357829003601f168201915b5050505050908060020160009054906101000a900460ff16908060020160019054906101000a900473ffffffffffffffffffffffffffffffffffffffff16908060030154905085565b60008054906101000a900473ffffffffffffffffffffffffffffffffffffffff1673ffffffffffffffffffffffffffffffffffffffff168173ffffffffffffffffffffffffffffffffffffffff1603610e77576040517f08c379a0000000000000000000000000000000000000000000000000000000008152600401610e6e906123d8565b60405180910390fd5b60008054906101000a900473ffffffffffffffffffffffffffffffffffffffff1673ffffffffffffffffffffffffffffffffffffffff163373ffffffffffffffffffffffffffffffffffffffff1614610f05576040517f08c379a0000000000000000000000000000000000000000000000000000000008152600401610efc9061272c565b60405180910390fd5b60001515600760008373ffffffffffffffffffffffffffffffffffffffff1673ffffffffffffffffffffffffffffffffffffffff16815260200190815260200160002060000160009054906101000a900460ff16151514610f9b576040517f08c379a0000000000000000000000000000000000000000000000000000000008152600401610f9290612798565b60405180910390fd5b6000604051806040016040528060011515815260200160001515815250905080600760008473ffffffffffffffffffffffffffffffffffffffff1673ffffffffffffffffffffffffffffffffffffffff16815260200190815260200160002060008201518160000160006101000a81548160ff02191690831515021790555060208201518160000160016101000a81548160ff0219169083151502179055509050507f68f068b2f0d02fca99bc8285b62fce8668fe16b7c6a810351ea25bff358c0dd860405161106a90612804565b60405180910390a15050565b600160009054906101000a900473ffffffffffffffffffffffffffffffffffffffff1681565b606080600060068054905090508067ffffffffffffffff8111156110c3576110c261200c565b5b6040519080825280602002602001820160405280156110f657816020015b60608152602001906001900390816110e15790505b5092508067ffffffffffffffff8111156111135761111261200c565b5b6040519080825280602002602001820160405280156111415781602001602082028036833780820191505090505b50915060005b818110156112735760068181548110611163576111626124d0565b5b9060005260206000209060040201600101805461117f906122c9565b80601f01602080910402602001604051908101604052809291908181526020018280546111ab906122c9565b80156111f85780601f106111cd576101008083540402835291602001916111f8565b820191906000526020600020905b8154815290600101906020018083116111db57829003601f168201915b50505050508482815181106112105761120f6124d0565b5b60200260200101819052506006818154811061122f5761122e6124d0565b5b906000526020600020906004020160030154838281518110611254576112536124d0565b5b602002602001018181525050808061126b9061259a565b915050611147565b50509091565b60606006805480602002602001604051908101604052809291908181526020016000905b8282101561146e57838290600052602060002090600402016040518060a00160405290816000820180546112d0906122c9565b80601f01602080910402602001604051908101604052809291908181526020018280546112fc906122c9565b80156113495780601f1061131e57610100808354040283529160200191611349565b820191906000526020600020905b81548152906001019060200180831161132c57829003601f168201915b50505050508152602001600182018054611362906122c9565b80601f016020809104026020016040519081016040528092919081815260200182805461138e906122c9565b80156113db5780601f106113b0576101008083540402835291602001916113db565b820191906000526020600020905b8154815290600101906020018083116113be57829003601f168201915b505050505081526020016002820160009054906101000a900460ff161515151581526020016002820160019054906101000a900473ffffffffffffffffffffffffffffffffffffffff1673ffffffffffffffffffffffffffffffffffffffff1673ffffffffffffffffffffffffffffffffffffffff1681526020016003820154815250508152602001906001019061129d565b50505050905090565b60008054906101000a900473ffffffffffffffffffffffffffffffffffffffff1673ffffffffffffffffffffffffffffffffffffffff163373ffffffffffffffffffffffffffffffffffffffff1614611505576040517f08c379a00000000000000000000000000000000000000000000000000000000081526004016114fc90612896565b60405180910390fd5b60008054906101000a900473ffffffffffffffffffffffffffffffffffffffff1673ffffffffffffffffffffffffffffffffffffffff168173ffffffffffffffffffffffffffffffffffffffff1603611593576040517f08c379a000000000000000000000000000000000000000000000000000000000815260040161158a90612902565b60405180910390fd5b6000600560008373ffffffffffffffffffffffffffffffffffffffff1673ffffffffffffffffffffffffffffffffffffffff1681526020019081526020016000205414611615576040517f08c379a000000000000000000000000000000000000000000000000000000000815260040161160c9061296e565b60405180910390fd5b60006040518060a001604052808581526020018481526020016001151581526020018373ffffffffffffffffffffffffffffffffffffffff16815260200160008152509050600060068054905003611686576006600181600181540180825580915050039060005260206000209050505b600680549050600560008473ffffffffffffffffffffffffffffffffffffffff1673ffffffffffffffffffffffffffffffffffffffff16815260200190815260200160002081905550600681908060018154018082558091505060019003906000526020600020906004020160009091909190915060008201518160000190805190602001906117179291906118c9565b5060208201518160010190805190602001906117349291906118c9565b5060408201518160020160006101000a81548160ff02191690831515021790555060608201518160020160016101000a81548173ffffffffffffffffffffffffffffffffffffffff021916908373ffffffffffffffffffffffffffffffffffffffff1602179055506080820151816003015550507f68f068b2f0d02fca99bc8285b62fce8668fe16b7c6a810351ea25bff358c0dd86040516117d5906129da565b60405180910390a150505050565b60035481565b60008054906101000a900473ffffffffffffffffffffffffffffffffffffffff1673ffffffffffffffffffffffffffffffffffffffff163373ffffffffffffffffffffffffffffffffffffffff1614611877576040517f08c379a000000000000000000000000000000000000000000000000000000000815260040161186e9061220e565b60405180910390fd5b6000600460006101000a81548160ff0219169083151502179055507f68f068b2f0d02fca99bc8285b62fce8668fe16b7c6a810351ea25bff358c0dd86040516118bf90612a46565b60405180910390a1565b8280546118d5906122c9565b90600052602060002090601f0160209004810192826118f7576000855561193e565b82601f1061191057805160ff191683800117855561193e565b8280016001018555821561193e579182015b8281111561193d578251825591602001919060010190611922565b5b50905061194b919061194f565b5090565b5b80821115611968576000816000905550600101611950565b5090565b6000604051905090565b600080fd5b600080fd5b600073ffffffffffffffffffffffffffffffffffffffff82169050919050565b60006119ab82611980565b9050919050565b6119bb816119a0565b81146119c657600080fd5b50565b6000813590506119d8816119b2565b92915050565b6000602082840312156119f4576119f3611976565b5b6000611a02848285016119c9565b91505092915050565b60008115159050919050565b611a2081611a0b565b82525050565b6000604082019050611a3b6000830185611a17565b611a486020830184611a17565b9392505050565b6000602082019050611a646000830184611a17565b92915050565b600081519050919050565b600082825260208201905092915050565b60005b83811015611aa4578082015181840152602081019050611a89565b83811115611ab3576000848401525b50505050565b6000601f19601f8301169050919050565b6000611ad582611a6a565b611adf8185611a75565b9350611aef818560208601611a86565b611af881611ab9565b840191505092915050565b60006020820190508181036000830152611b1d8184611aca565b905092915050565b6000819050919050565b611b3881611b25565b82525050565b6000602082019050611b536000830184611b2f565b92915050565b611b62816119a0565b82525050565b6000602082019050611b7d6000830184611b59565b92915050565b60006060820190508181036000830152611b9d8186611aca565b90508181036020830152611bb18185611aca565b9050611bc06040830184611b2f565b949350505050565b611bd181611b25565b8114611bdc57600080fd5b50565b600081359050611bee81611bc8565b92915050565b600060208284031215611c0a57611c09611976565b5b6000611c1884828501611bdf565b91505092915050565b600060a0820190508181036000830152611c3b8188611aca565b90508181036020830152611c4f8187611aca565b9050611c5e6040830186611a17565b611c6b6060830185611b59565b611c786080830184611b2f565b9695505050505050565b600081519050919050565b600082825260208201905092915050565b6000819050602082019050919050565b600082825260208201905092915050565b6000611cca82611a6a565b611cd48185611cae565b9350611ce4818560208601611a86565b611ced81611ab9565b840191505092915050565b6000611d048383611cbf565b905092915050565b6000602082019050919050565b6000611d2482611c82565b611d2e8185611c8d565b935083602082028501611d4085611c9e565b8060005b85811015611d7c5784840389528151611d5d8582611cf8565b9450611d6883611d0c565b925060208a01995050600181019050611d44565b50829750879550505050505092915050565b600081519050919050565b600082825260208201905092915050565b6000819050602082019050919050565b611dc381611b25565b82525050565b6000611dd58383611dba565b60208301905092915050565b6000602082019050919050565b6000611df982611d8e565b611e038185611d99565b9350611e0e83611daa565b8060005b83811015611e3f578151611e268882611dc9565b9750611e3183611de1565b925050600181019050611e12565b5085935050505092915050565b60006040820190508181036000830152611e668185611d19565b90508181036020830152611e7a8184611dee565b90509392505050565b600081519050919050565b600082825260208201905092915050565b6000819050602082019050919050565b611eb881611a0b565b82525050565b611ec7816119a0565b82525050565b600060a0830160008301518482036000860152611eea8282611cbf565b91505060208301518482036020860152611f048282611cbf565b9150506040830151611f196040860182611eaf565b506060830151611f2c6060860182611ebe565b506080830151611f3f6080860182611dba565b508091505092915050565b6000611f568383611ecd565b905092915050565b6000602082019050919050565b6000611f7682611e83565b611f808185611e8e565b935083602082028501611f9285611e9f565b8060005b85811015611fce5784840389528151611faf8582611f4a565b9450611fba83611f5e565b925060208a01995050600181019050611f96565b50829750879550505050505092915050565b60006020820190508181036000830152611ffa8184611f6b565b905092915050565b600080fd5b600080fd5b7f4e487b7100000000000000000000000000000000000000000000000000000000600052604160045260246000fd5b61204482611ab9565b810181811067ffffffffffffffff821117156120635761206261200c565b5b80604052505050565b600061207661196c565b9050612082828261203b565b919050565b600067ffffffffffffffff8211156120a2576120a161200c565b5b6120ab82611ab9565b9050602081019050919050565b82818337600083830152505050565b60006120da6120d584612087565b61206c565b9050828152602081018484840111156120f6576120f5612007565b5b6121018482856120b8565b509392505050565b600082601f83011261211e5761211d612002565b5b813561212e8482602086016120c7565b91505092915050565b6000806000606084860312156121505761214f611976565b5b600084013567ffffffffffffffff81111561216e5761216d61197b565b5b61217a86828701612109565b935050602084013567ffffffffffffffff81111561219b5761219a61197b565b5b6121a786828701612109565b92505060406121b8868287016119c9565b9150509250925092565b7f4f6e6c79206f776e65722063616e20737461727420766f74696e672121000000600082015250565b60006121f8601d83611a75565b9150612203826121c2565b602082019050919050565b60006020820190508181036000830152612227816121eb565b9050919050565b7f566f74696e672053746172746564212100000000000000000000000000000000600082015250565b6000612264601083611a75565b915061226f8261222e565b602082019050919050565b6000602082019050818103600083015261229381612257565b9050919050565b7f4e487b7100000000000000000000000000000000000000000000000000000000600052602260045260246000fd5b600060028204905060018216806122e157607f821691505b6020821081036122f4576122f361229a565b5b50919050565b7f566f74696e67206e6f74207374617274656420796574206f7220656e6465642160008201527f2100000000000000000000000000000000000000000000000000000000000000602082015250565b6000612356602183611a75565b9150612361826122fa565b604082019050919050565b6000602082019050818103600083015261238581612349565b9050919050565b7f4f776e65722063616e206e6f7420766f74652121000000000000000000000000600082015250565b60006123c2601483611a75565b91506123cd8261238c565b602082019050919050565b600060208201905081810360008301526123f1816123b5565b9050919050565b7f566f746572206e6f742072656769737465726564212100000000000000000000600082015250565b600061242e601683611a75565b9150612439826123f8565b602082019050919050565b6000602082019050818103600083015261245d81612421565b9050919050565b7f416c726561647920766f74656421210000000000000000000000000000000000600082015250565b600061249a600f83611a75565b91506124a582612464565b602082019050919050565b600060208201905081810360008301526124c98161248d565b9050919050565b7f4e487b7100000000000000000000000000000000000000000000000000000000600052603260045260246000fd5b7f43616e646964617465206e6f7420726567697374657265640000000000000000600082015250565b6000612535601883611a75565b9150612540826124ff565b602082019050919050565b6000602082019050818103600083015261256481612528565b9050919050565b7f4e487b7100000000000000000000000000000000000000000000000000000000600052601160045260246000fd5b60006125a582611b25565b91507fffffffffffffffffffffffffffffffffffffffffffffffffffffffffffffffff82036125d7576125d661256b565b5b600182019050919050565b7f566f746564202121000000000000000000000000000000000000000000000000600082015250565b6000612618600883611a75565b9150612623826125e2565b602082019050919050565b600060208201905081810360008301526126478161260b565b9050919050565b7f4f6e6c79206f776e65722063616e206465636c6172652077696e6e6572212100600082015250565b6000612684601f83611a75565b915061268f8261264e565b602082019050919050565b600060208201905081810360008301526126b381612677565b9050919050565b7f4f6e6c79206f776e65722063616e2077686974656c697374207468652061646460008201527f7265737365732121000000000000000000000000000000000000000000000000602082015250565b6000612716602883611a75565b9150612721826126ba565b604082019050919050565b6000602082019050818103600083015261274581612709565b9050919050565b7f566f74657220616c726561647920726567697374657265642121000000000000600082015250565b6000612782601a83611a75565b915061278d8261274c565b602082019050919050565b600060208201905081810360008301526127b181612775565b9050919050565b7f566f746572207265676973746572656421210000000000000000000000000000600082015250565b60006127ee601283611a75565b91506127f9826127b8565b602082019050919050565b6000602082019050818103600083015261281d816127e1565b9050919050565b7f4f6e6c79206f776e65722063616e2072656769737465722043616e646964617460008201527f6521210000000000000000000000000000000000000000000000000000000000602082015250565b6000612880602383611a75565b915061288b82612824565b604082019050919050565b600060208201905081810360008301526128af81612873565b9050919050565b7f4f776e65722063616e206e6f7420706172746963697061746521210000000000600082015250565b60006128ec601b83611a75565b91506128f7826128b6565b602082019050919050565b6000602082019050818103600083015261291b816128df565b9050919050565b7f43616e64696461746520616c7265616479207265676973746572656400000000600082015250565b6000612958601c83611a75565b915061296382612922565b602082019050919050565b600060208201905081810360008301526129878161294b565b9050919050565b7f43616e6469646174652072656769737465726564212100000000000000000000600082015250565b60006129c4601683611a75565b91506129cf8261298e565b602082019050919050565b600060208201905081810360008301526129f3816129b7565b9050919050565b7f566f74696e672073746f70656421210000000000000000000000000000000000600082015250565b6000612a30600f83611a75565b9150612a3b826129fa565b602082019050919050565b60006020820190508181036000830152612a5f81612a23565b905091905056fea2646970667358221220f13283a0ef53a91dafdf02387fadd3ffc6345cf0f3f7a36e5c73aeb06f0ea1c664736f6c634300080d0033",
  "immutableReferences": {},
  "source": "// SPDX-License-Identifier: GPL-3.0\r\n\r\npragma solidity ^0.8.13;\r\n\r\ncontract Voting {\r\n\r\n    address public owner;\r\n    address public winnerAddress;\r\n    string public eventName;\r\n    uint public totalVote;\r\n    bool votingStarted;\r\n\r\n    struct Candidate{\r\n        string name;\r\n        string uid;\r\n        bool registered;\r\n        address candidateAddress;\r\n        uint votes;\r\n    }\r\n\r\n    struct Voter{\r\n        bool registered;\r\n        bool voted;\r\n    }\r\n\r\n    event success(string msg);\r\n    mapping(address=>uint) public candidates;\r\n    Candidate[] public candidateList;\r\n    mapping(address=>Voter) public voterList;\r\n\r\n    constructor(string memory _eventName){\r\n        owner = msg.sender;\r\n        eventName = _eventName;\r\n        totalVote = 0;\r\n        votingStarted=false;\r\n    }\r\n\r\n    function registerCandidates(string memory _name, string memory _uid, address _candidateAddress) external {\r\n        require(msg.sender == owner, \"Only owner can register Candidate!!\");\r\n        require(_candidateAddress != owner, \"Owner can not participate!!\");\r\n        require(candidates[_candidateAddress] == 0, \"Candidate already registered\");\r\n        Candidate memory candidate = Candidate({\r\n            name: _name,\r\n            uid: _uid,\r\n            registered: true,\r\n            votes: 0,\r\n            candidateAddress: _candidateAddress\r\n        });\r\n        if(candidateList.length == 0){ //not pushing any candidate on location zero;\r\n            candidateList.push();\r\n        }\r\n        candidates[_candidateAddress] = candidateList.length;\r\n        candidateList.push(candidate);\r\n        emit success(\"Candidate registered!!\");\r\n    }\r\n\r\n    function whiteListAddress(address _voterAddress) external {\r\n        require(_voterAddress != owner, \"Owner can not vote!!\");\r\n        require(msg.sender == owner, \"Only owner can whitelist the addresses!!\");\r\n        require(voterList[_voterAddress].registered == false, \"Voter already registered!!\");\r\n        Voter memory voter = Voter({\r\n            registered: true,\r\n            voted: false\r\n        });\r\n\r\n        voterList[_voterAddress] = voter;\r\n        emit success(\"Voter registered!!\");\r\n    }\r\n\r\n    function startVoting() external {\r\n        require(msg.sender == owner, \"Only owner can start voting!!\");\r\n        votingStarted = true;\r\n        emit success(\"Voting Started!!\");\r\n    }\r\n\r\n    function putVote(address _candidateAddress) external {\r\n        require(votingStarted == true, \"Voting not started yet or ended!!\");\r\n        require(msg.sender != owner, \"Owner can not vote!!\");\r\n        require(voterList[msg.sender].registered == true, \"Voter not registered!!\");\r\n        require(voterList[msg.sender].voted == false, \"Already voted!!\");\r\n        require(candidateList[candidates[_candidateAddress]].registered == true, \"Candidate not registered\");\r\n\r\n        candidateList[candidates[_candidateAddress]].votes++;\r\n        voterList[msg.sender].voted =true;\r\n\r\n        uint candidateVotes = candidateList[candidates[_candidateAddress]].votes;\r\n\r\n        if(totalVote < candidateVotes){\r\n            totalVote = candidateVotes;\r\n            winnerAddress = _candidateAddress;\r\n        }\r\n        emit success(\"Voted !!\");\r\n        \r\n    }\r\n\r\n    function stopVoting() external {\r\n        require(msg.sender == owner, \"Only owner can start voting!!\");\r\n        votingStarted = false;\r\n        emit success(\"Voting stoped!!\");\r\n    }\r\n\r\n    function getAllCandidateVotes() external view returns (string[] memory uids, uint[] memory votes) {\r\n    uint candidateCount = candidateList.length;\r\n    uids = new string[](candidateCount);\r\n    votes = new uint[](candidateCount);\r\n\r\n    for (uint i = 0; i < candidateCount; i++) {\r\n        uids[i] = candidateList[i].uid; // Assuming uid is a property of the Candidate struct\r\n        votes[i] = candidateList[i].votes; // Assuming votes is a property of the Candidate struct\r\n        }\r\n    }\r\n    \r\n    function getAllCandidate() external view returns(Candidate[] memory list){\r\n        return candidateList;\r\n    }\r\n\r\n    function votingStatus() external view returns(bool){\r\n        return votingStarted;\r\n    }\r\n\r\n    function getWinner() public view returns(string memory name, string memory uid, uint votes){\r\n        require(msg.sender == owner, \"Only owner can declare winner!!\");\r\n        Candidate memory winner = candidateList[candidates[winnerAddress]];\r\n        return (winner.name, winner.uid, winner.votes); // Return name, uid, and votes\r\n    }\r\n\r\n}",
  "sourcePath": "D:\\new project\\Voting_dapp\\contract_folder\\contracts\\Voting.sol",
  "compiler": {
    "name": "solc",
    "version": "0.8.13+commit.abaa5c0e.Emscripten.clang"
  },
  "schemaVersion": "3.4.16",
  "updatedAt": "2024-12-21T16:53:43.208Z",
  "networkType": "ethereum",
  "devdoc": {
    "kind": "dev",
    "methods": {},
    "version": 1
  },
  "userdoc": {
    "kind": "user",
    "methods": {},
    "version": 1
  }
}