{
  "contractName": "Voting",
  "abi": [
    {
      "inputs": [
        {
          "internalType": "string",
          "name": "_eventName",
          "type": "string"
        }
      ],
      "stateMutability": "nonpayable",
      "type": "constructor"
    },
    {
      "anonymous": false,
      "inputs": [
        {
          "indexed": false,
          "internalType": "string",
          "name": "msg",
          "type": "string"
        }
      ],
      "name": "success",
      "type": "event"
    },
    {
      "inputs": [
        {
          "internalType": "uint256",
          "name": "",
          "type": "uint256"
        }
      ],
      "name": "candidateList",
      "outputs": [
        {
          "internalType": "string",
          "name": "name",
          "type": "string"
        },
        {
          "internalType": "string",
          "name": "uid",
          "type": "string"
        },
        {
          "internalType": "bool",
          "name": "registered",
          "type": "bool"
        },
        {
          "internalType": "address",
          "name": "candidateAddress",
          "type": "address"
        },
        {
          "internalType": "uint256",
          "name": "votes",
          "type": "uint256"
        }
      ],
      "stateMutability": "view",
      "type": "function",
      "constant": true
    },
    {
      "inputs": [
        {
          "internalType": "address",
          "name": "",
          "type": "address"
        }
      ],
      "name": "candidates",
      "outputs": [
        {
          "internalType": "uint256",
          "name": "",
          "type": "uint256"
        }
      ],
      "stateMutability": "view",
      "type": "function",
      "constant": true
    },
    {
      "inputs": [],
      "name": "eventName",
      "outputs": [
        {
          "internalType": "string",
          "name": "",
          "type": "string"
        }
      ],
      "stateMutability": "view",
      "type": "function",
      "constant": true
    },
    {
      "inputs": [],
      "name": "owner",
      "outputs": [
        {
          "internalType": "address",
          "name": "",
          "type": "address"
        }
      ],
      "stateMutability": "view",
      "type": "function",
      "constant": true
    },
    {
      "inputs": [],
      "name": "totalVote",
      "outputs": [
        {
          "internalType": "uint256",
          "name": "",
          "type": "uint256"
        }
      ],
      "stateMutability": "view",
      "type": "function",
      "constant": true
    },
    {
      "inputs": [
        {
          "internalType": "address",
          "name": "",
          "type": "address"
        }
      ],
      "name": "voterList",
      "outputs": [
        {
          "internalType": "bool",
          "name": "registered",
          "type": "bool"
        },
        {
          "internalType": "bool",
          "name": "voted",
          "type": "bool"
        }
      ],
      "stateMutability": "view",
      "type": "function",
      "constant": true
    },
    {
      "inputs": [],
      "name": "winnerAddress",
      "outputs": [
        {
          "internalType": "address",
          "name": "",
          "type": "address"
        }
      ],
      "stateMutability": "view",
      "type": "function",
      "constant": true
    },
    {
      "inputs": [
        {
          "internalType": "string",
          "name": "_name",
          "type": "string"
        },
        {
          "internalType": "string",
          "name": "_uid",
          "type": "string"
        },
        {
          "internalType": "address",
          "name": "_candidateAddress",
          "type": "address"
        }
      ],
      "name": "registerCandidates",
      "outputs": [],
      "stateMutability": "nonpayable",
      "type": "function"
    },
    {
      "inputs": [
        {
          "internalType": "address",
          "name": "_voterAddress",
          "type": "address"
        }
      ],
      "name": "whiteListAddress",
      "outputs": [],
      "stateMutability": "nonpayable",
      "type": "function"
    },
    {
      "inputs": [],
      "name": "startVoting",
      "outputs": [],
      "stateMutability": "nonpayable",
      "type": "function"
    },
    {
      "inputs": [
        {
          "internalType": "address",
          "name": "_candidateAddress",
          "type": "address"
        }
      ],
      "name": "putVote",
      "outputs": [],
      "stateMutability": "nonpayable",
      "type": "function"
    },
    {
      "inputs": [],
      "name": "stopVoting",
      "outputs": [],
      "stateMutability": "nonpayable",
      "type": "function"
    },
    {
      "inputs": [],
      "name": "getAllCandidateVotes",
      "outputs": [
        {
          "internalType": "string[]",
          "name": "uids",
          "type": "string[]"
        },
        {
          "internalType": "uint256[]",
          "name": "votes",
          "type": "uint256[]"
        }
      ],
      "stateMutability": "view",
      "type": "function",
      "constant": true
    },
    {
      "inputs": [],
      "name": "getAllCandidate",
      "outputs": [
        {
          "components": [
            {
              "internalType": "string",
              "name": "name",
              "type": "string"
            },
            {
              "internalType": "string",
              "name": "uid",
              "type": "string"
            },
            {
              "internalType": "bool",
              "name": "registered",
              "type": "bool"
            },
            {
              "internalType": "address",
              "name": "candidateAddress",
              "type": "address"
            },
            {
              "internalType": "uint256",
              "name": "votes",
              "type": "uint256"
            }
          ],
          "internalType": "struct Voting.Candidate[]",
          "name": "list",
          "type": "tuple[]"
        }
      ],
      "stateMutability": "view",
      "type": "function",
      "constant": true
    },
    {
      "inputs": [],
      "name": "votingStatus",
      "outputs": [
        {
          "internalType": "bool",
          "name": "",
          "type": "bool"
        }
      ],
      "stateMutability": "view",
      "type": "function",
      "constant": true
    },
    {
      "inputs": [],
      "name": "getWinner",
      "outputs": [
        {
          "components": [
            {
              "internalType": "string",
              "name": "name",
              "type": "string"
            },
            {
              "internalType": "string",
              "name": "uid",
              "type": "string"
            },
            {
              "internalType": "uint256",
              "name": "votes",
              "type": "uint256"
            }
          ],
          "internalType": "struct Voting.WinnerInfo[]",
          "name": "winners",
          "type": "tuple[]"
        }
      ],
      "stateMutability": "view",
      "type": "function",
      "constant": true
    }
  ],
  "bytecode": "0x60806040523480156200001157600080fd5b506040516200315e3803806200315e833981810160405281019062000037919062000307565b336000806101000a81548173ffffffffffffffffffffffffffffffffffffffff021916908373ffffffffffffffffffffffffffffffffffffffff16021790555080600290805190602001906200008f929190620000ba565b5060006003819055506000600460006101000a81548160ff02191690831515021790555050620003bc565b828054620000c89062000387565b90600052602060002090601f016020900481019282620000ec576000855562000138565b82601f106200010757805160ff191683800117855562000138565b8280016001018555821562000138579182015b82811115620001375782518255916020019190600101906200011a565b5b5090506200014791906200014b565b5090565b5b80821115620001665760008160009055506001016200014c565b5090565b6000604051905090565b600080fd5b600080fd5b600080fd5b600080fd5b6000601f19601f8301169050919050565b7f4e487b7100000000000000000000000000000000000000000000000000000000600052604160045260246000fd5b620001d38262000188565b810181811067ffffffffffffffff82111715620001f557620001f462000199565b5b80604052505050565b60006200020a6200016a565b9050620002188282620001c8565b919050565b600067ffffffffffffffff8211156200023b576200023a62000199565b5b620002468262000188565b9050602081019050919050565b60005b838110156200027357808201518184015260208101905062000256565b8381111562000283576000848401525b50505050565b6000620002a06200029a846200021d565b620001fe565b905082815260208101848484011115620002bf57620002be62000183565b5b620002cc84828562000253565b509392505050565b600082601f830112620002ec57620002eb6200017e565b5b8151620002fe84826020860162000289565b91505092915050565b60006020828403121562000320576200031f62000174565b5b600082015167ffffffffffffffff81111562000341576200034062000179565b5b6200034f84828501620002d4565b91505092915050565b7f4e487b7100000000000000000000000000000000000000000000000000000000600052602260045260246000fd5b60006002820490506001821680620003a057607f821691505b602082108103620003b657620003b562000358565b5b50919050565b612d9280620003cc6000396000f3fe608060405234801561001057600080fd5b50600436106101005760003560e01c8063b13c744b11610097578063efd5297c11610066578063efd5297c14610291578063f0f801f3146102af578063f1cea4c7146102cb578063fab2f86b146102e957610100565b8063b13c744b14610204578063cf52a7b214610238578063ed7a4e0b14610254578063ef66ad1a1461027257610100565b806388fb6f74116100d357806388fb6f741461017c5780638ab66a90146101985780638da5cb5b146101c85780638e7ea5b2146101e657610100565b806303b4caed1461010557806319f41a40146101365780631ec6b60a146101545780638043c9c01461015e575b600080fd5b61011f600480360381019061011a9190611b06565b6102f3565b60405161012d929190611b4e565b60405180910390f35b61013e610331565b60405161014b9190611b77565b60405180910390f35b61015c610348565b005b610166610428565b6040516101739190611c2b565b60405180910390f35b61019660048036038101906101919190611b06565b6104b6565b005b6101b260048036038101906101ad9190611b06565b610948565b6040516101bf9190611c66565b60405180910390f35b6101d0610960565b6040516101dd9190611c90565b60405180910390f35b6101ee610984565b6040516101fb9190611e1d565b60405180910390f35b61021e60048036038101906102199190611e6b565b610d6d565b60405161022f959493929190611e98565b60405180910390f35b610252600480360381019061024d9190611b06565b610ef0565b005b61025c61117d565b6040516102699190611c90565b60405180910390f35b61027a6111a3565b60405161028892919061206a565b60405180910390f35b610299611380565b6040516102a691906121fe565b60405180910390f35b6102c960048036038101906102c49190612355565b61157e565b005b6102d36118ea565b6040516102e09190611c66565b60405180910390f35b6102f16118f0565b005b60076020528060005260406000206000915090508060000160009054906101000a900460ff16908060000160019054906101000a900460ff16905082565b6000600460009054906101000a900460ff16905090565b60008054906101000a900473ffffffffffffffffffffffffffffffffffffffff1673ffffffffffffffffffffffffffffffffffffffff163373ffffffffffffffffffffffffffffffffffffffff16146103d6576040517f08c379a00000000000000000000000000000000000000000000000000000000081526004016103cd9061242c565b60405180910390fd5b6001600460006101000a81548160ff0219169083151502179055507f68f068b2f0d02fca99bc8285b62fce8668fe16b7c6a810351ea25bff358c0dd860405161041e90612498565b60405180910390a1565b60028054610435906124e7565b80601f0160208091040260200160405190810160405280929190818152602001828054610461906124e7565b80156104ae5780601f10610483576101008083540402835291602001916104ae565b820191906000526020600020905b81548152906001019060200180831161049157829003601f168201915b505050505081565b60011515600460009054906101000a900460ff1615151461050c576040517f08c379a00000000000000000000000000000000000000000000000000000000081526004016105039061258a565b60405180910390fd5b60008054906101000a900473ffffffffffffffffffffffffffffffffffffffff1673ffffffffffffffffffffffffffffffffffffffff163373ffffffffffffffffffffffffffffffffffffffff160361059a576040517f08c379a0000000000000000000000000000000000000000000000000000000008152600401610591906125f6565b60405180910390fd5b60011515600760003373ffffffffffffffffffffffffffffffffffffffff1673ffffffffffffffffffffffffffffffffffffffff16815260200190815260200160002060000160009054906101000a900460ff16151514610630576040517f08c379a000000000000000000000000000000000000000000000000000000000815260040161062790612662565b60405180910390fd5b60001515600760003373ffffffffffffffffffffffffffffffffffffffff1673ffffffffffffffffffffffffffffffffffffffff16815260200190815260200160002060000160019054906101000a900460ff161515146106c6576040517f08c379a00000000000000000000000000000000000000000000000000000000081526004016106bd906126ce565b60405180910390fd5b600115156006600560008473ffffffffffffffffffffffffffffffffffffffff1673ffffffffffffffffffffffffffffffffffffffff168152602001908152602001600020548154811061071d5761071c6126ee565b5b906000526020600020906004020160020160009054906101000a900460ff1615151461077e576040517f08c379a000000000000000000000000000000000000000000000000000000000815260040161077590612769565b60405180910390fd5b6006600560008373ffffffffffffffffffffffffffffffffffffffff1673ffffffffffffffffffffffffffffffffffffffff16815260200190815260200160002054815481106107d1576107d06126ee565b5b906000526020600020906004020160030160008154809291906107f3906127b8565b91905055506001600760003373ffffffffffffffffffffffffffffffffffffffff1673ffffffffffffffffffffffffffffffffffffffff16815260200190815260200160002060000160016101000a81548160ff02191690831515021790555060006006600560008473ffffffffffffffffffffffffffffffffffffffff1673ffffffffffffffffffffffffffffffffffffffff16815260200190815260200160002054815481106108a8576108a76126ee565b5b906000526020600020906004020160030154905080600354101561090f578060038190555081600160006101000a81548173ffffffffffffffffffffffffffffffffffffffff021916908373ffffffffffffffffffffffffffffffffffffffff1602179055505b7f68f068b2f0d02fca99bc8285b62fce8668fe16b7c6a810351ea25bff358c0dd860405161093c9061284c565b60405180910390a15050565b60056020528060005260406000206000915090505481565b60008054906101000a900473ffffffffffffffffffffffffffffffffffffffff1681565b60606000600680549050116109ce576040517f08c379a00000000000000000000000000000000000000000000000000000000081526004016109c5906128b8565b60405180910390fd5b600460009054906101000a900460ff1615610a1e576040517f08c379a0000000000000000000000000000000000000000000000000000000008152600401610a1590612924565b60405180910390fd5b6000805b600680549050811015610a98578160068281548110610a4457610a436126ee565b5b9060005260206000209060040201600301541115610a855760068181548110610a7057610a6f6126ee565b5b90600052602060002090600402016003015491505b8080610a90906127b8565b915050610a22565b506000805b600680549050811015610af8578260068281548110610abf57610abe6126ee565b5b90600052602060002090600402016003015403610ae5578180610ae1906127b8565b9250505b8080610af0906127b8565b915050610a9d565b508067ffffffffffffffff811115610b1357610b1261222a565b5b604051908082528060200260200182016040528015610b4c57816020015b610b396119d0565b815260200190600190039081610b315790505b5092506000805b600680549050811015610d66578360068281548110610b7557610b746126ee565b5b90600052602060002090600402016003015403610d5357604051806060016040528060068381548110610bab57610baa6126ee565b5b90600052602060002090600402016000018054610bc7906124e7565b80601f0160208091040260200160405190810160405280929190818152602001828054610bf3906124e7565b8015610c405780601f10610c1557610100808354040283529160200191610c40565b820191906000526020600020905b815481529060010190602001808311610c2357829003601f168201915b5050505050815260200160068381548110610c5e57610c5d6126ee565b5b90600052602060002090600402016001018054610c7a906124e7565b80601f0160208091040260200160405190810160405280929190818152602001828054610ca6906124e7565b8015610cf35780601f10610cc857610100808354040283529160200191610cf3565b820191906000526020600020905b815481529060010190602001808311610cd657829003601f168201915b5050505050815260200160068381548110610d1157610d106126ee565b5b906000526020600020906004020160030154815250858381518110610d3957610d386126ee565b5b60200260200101819052508180610d4f906127b8565b9250505b8080610d5e906127b8565b915050610b53565b5050505090565b60068181548110610d7d57600080fd5b9060005260206000209060040201600091509050806000018054610da0906124e7565b80601f0160208091040260200160405190810160405280929190818152602001828054610dcc906124e7565b8015610e195780601f10610dee57610100808354040283529160200191610e19565b820191906000526020600020905b815481529060010190602001808311610dfc57829003601f168201915b505050505090806001018054610e2e906124e7565b80601f0160208091040260200160405190810160405280929190818152602001828054610e5a906124e7565b8015610ea75780601f10610e7c57610100808354040283529160200191610ea7565b820191906000526020600020905b815481529060010190602001808311610e8a57829003601f168201915b5050505050908060020160009054906101000a900460ff16908060020160019054906101000a900473ffffffffffffffffffffffffffffffffffffffff16908060030154905085565b60008054906101000a900473ffffffffffffffffffffffffffffffffffffffff1673ffffffffffffffffffffffffffffffffffffffff168173ffffffffffffffffffffffffffffffffffffffff1603610f7e576040517f08c379a0000000000000000000000000000000000000000000000000000000008152600401610f75906125f6565b60405180910390fd5b60008054906101000a900473ffffffffffffffffffffffffffffffffffffffff1673ffffffffffffffffffffffffffffffffffffffff163373ffffffffffffffffffffffffffffffffffffffff161461100c576040517f08c379a0000000000000000000000000000000000000000000000000000000008152600401611003906129b6565b60405180910390fd5b60001515600760008373ffffffffffffffffffffffffffffffffffffffff1673ffffffffffffffffffffffffffffffffffffffff16815260200190815260200160002060000160009054906101000a900460ff161515146110a2576040517f08c379a000000000000000000000000000000000000000000000000000000000815260040161109990612a22565b60405180910390fd5b6000604051806040016040528060011515815260200160001515815250905080600760008473ffffffffffffffffffffffffffffffffffffffff1673ffffffffffffffffffffffffffffffffffffffff16815260200190815260200160002060008201518160000160006101000a81548160ff02191690831515021790555060208201518160000160016101000a81548160ff0219169083151502179055509050507f68f068b2f0d02fca99bc8285b62fce8668fe16b7c6a810351ea25bff358c0dd860405161117190612a8e565b60405180910390a15050565b600160009054906101000a900473ffffffffffffffffffffffffffffffffffffffff1681565b606080600060068054905090508067ffffffffffffffff8111156111ca576111c961222a565b5b6040519080825280602002602001820160405280156111fd57816020015b60608152602001906001900390816111e85790505b5092508067ffffffffffffffff81111561121a5761121961222a565b5b6040519080825280602002602001820160405280156112485781602001602082028036833780820191505090505b50915060005b8181101561137a576006818154811061126a576112696126ee565b5b90600052602060002090600402016001018054611286906124e7565b80601f01602080910402602001604051908101604052809291908181526020018280546112b2906124e7565b80156112ff5780601f106112d4576101008083540402835291602001916112ff565b820191906000526020600020905b8154815290600101906020018083116112e257829003601f168201915b5050505050848281518110611317576113166126ee565b5b602002602001018190525060068181548110611336576113356126ee565b5b90600052602060002090600402016003015483828151811061135b5761135a6126ee565b5b6020026020010181815250508080611372906127b8565b91505061124e565b50509091565b60606006805480602002602001604051908101604052809291908181526020016000905b8282101561157557838290600052602060002090600402016040518060a00160405290816000820180546113d7906124e7565b80601f0160208091040260200160405190810160405280929190818152602001828054611403906124e7565b80156114505780601f1061142557610100808354040283529160200191611450565b820191906000526020600020905b81548152906001019060200180831161143357829003601f168201915b50505050508152602001600182018054611469906124e7565b80601f0160208091040260200160405190810160405280929190818152602001828054611495906124e7565b80156114e25780601f106114b7576101008083540402835291602001916114e2565b820191906000526020600020905b8154815290600101906020018083116114c557829003601f168201915b505050505081526020016002820160009054906101000a900460ff161515151581526020016002820160019054906101000a900473ffffffffffffffffffffffffffffffffffffffff1673ffffffffffffffffffffffffffffffffffffffff1673ffffffffffffffffffffffffffffffffffffffff168152602001600382015481525050815260200190600101906113a4565b50505050905090565b60008054906101000a900473ffffffffffffffffffffffffffffffffffffffff1673ffffffffffffffffffffffffffffffffffffffff163373ffffffffffffffffffffffffffffffffffffffff161461160c576040517f08c379a000000000000000000000000000000000000000000000000000000000815260040161160390612b20565b60405180910390fd5b60008054906101000a900473ffffffffffffffffffffffffffffffffffffffff1673ffffffffffffffffffffffffffffffffffffffff168173ffffffffffffffffffffffffffffffffffffffff160361169a576040517f08c379a000000000000000000000000000000000000000000000000000000000815260040161169190612b8c565b60405180910390fd5b6000600560008373ffffffffffffffffffffffffffffffffffffffff1673ffffffffffffffffffffffffffffffffffffffff168152602001908152602001600020541461171c576040517f08c379a000000000000000000000000000000000000000000000000000000000815260040161171390612bf8565b60405180910390fd5b60006040518060a001604052808581526020018481526020016001151581526020018373ffffffffffffffffffffffffffffffffffffffff1681526020016000815250905060006006805490500361178d576006600181600181540180825580915050039060005260206000209050505b600680549050600560008473ffffffffffffffffffffffffffffffffffffffff1673ffffffffffffffffffffffffffffffffffffffff168152602001908152602001600020819055506006819080600181540180825580915050600190039060005260206000209060040201600090919091909150600082015181600001908051906020019061181e9291906119f1565b50602082015181600101908051906020019061183b9291906119f1565b5060408201518160020160006101000a81548160ff02191690831515021790555060608201518160020160016101000a81548173ffffffffffffffffffffffffffffffffffffffff021916908373ffffffffffffffffffffffffffffffffffffffff1602179055506080820151816003015550507f68f068b2f0d02fca99bc8285b62fce8668fe16b7c6a810351ea25bff358c0dd86040516118dc90612c64565b60405180910390a150505050565b60035481565b60008054906101000a900473ffffffffffffffffffffffffffffffffffffffff1673ffffffffffffffffffffffffffffffffffffffff163373ffffffffffffffffffffffffffffffffffffffff161461197e576040517f08c379a000000000000000000000000000000000000000000000000000000000815260040161197590612cd0565b60405180910390fd5b6000600460006101000a81548160ff0219169083151502179055507f68f068b2f0d02fca99bc8285b62fce8668fe16b7c6a810351ea25bff358c0dd86040516119c690612d3c565b60405180910390a1565b60405180606001604052806060815260200160608152602001600081525090565b8280546119fd906124e7565b90600052602060002090601f016020900481019282611a1f5760008555611a66565b82601f10611a3857805160ff1916838001178555611a66565b82800160010185558215611a66579182015b82811115611a65578251825591602001919060010190611a4a565b5b509050611a739190611a77565b5090565b5b80821115611a90576000816000905550600101611a78565b5090565b6000604051905090565b600080fd5b600080fd5b600073ffffffffffffffffffffffffffffffffffffffff82169050919050565b6000611ad382611aa8565b9050919050565b611ae381611ac8565b8114611aee57600080fd5b50565b600081359050611b0081611ada565b92915050565b600060208284031215611b1c57611b1b611a9e565b5b6000611b2a84828501611af1565b91505092915050565b60008115159050919050565b611b4881611b33565b82525050565b6000604082019050611b636000830185611b3f565b611b706020830184611b3f565b9392505050565b6000602082019050611b8c6000830184611b3f565b92915050565b600081519050919050565b600082825260208201905092915050565b60005b83811015611bcc578082015181840152602081019050611bb1565b83811115611bdb576000848401525b50505050565b6000601f19601f8301169050919050565b6000611bfd82611b92565b611c078185611b9d565b9350611c17818560208601611bae565b611c2081611be1565b840191505092915050565b60006020820190508181036000830152611c458184611bf2565b905092915050565b6000819050919050565b611c6081611c4d565b82525050565b6000602082019050611c7b6000830184611c57565b92915050565b611c8a81611ac8565b82525050565b6000602082019050611ca56000830184611c81565b92915050565b600081519050919050565b600082825260208201905092915050565b6000819050602082019050919050565b600082825260208201905092915050565b6000611cf382611b92565b611cfd8185611cd7565b9350611d0d818560208601611bae565b611d1681611be1565b840191505092915050565b611d2a81611c4d565b82525050565b60006060830160008301518482036000860152611d4d8282611ce8565b91505060208301518482036020860152611d678282611ce8565b9150506040830151611d7c6040860182611d21565b508091505092915050565b6000611d938383611d30565b905092915050565b6000602082019050919050565b6000611db382611cab565b611dbd8185611cb6565b935083602082028501611dcf85611cc7565b8060005b85811015611e0b5784840389528151611dec8582611d87565b9450611df783611d9b565b925060208a01995050600181019050611dd3565b50829750879550505050505092915050565b60006020820190508181036000830152611e378184611da8565b905092915050565b611e4881611c4d565b8114611e5357600080fd5b50565b600081359050611e6581611e3f565b92915050565b600060208284031215611e8157611e80611a9e565b5b6000611e8f84828501611e56565b91505092915050565b600060a0820190508181036000830152611eb28188611bf2565b90508181036020830152611ec68187611bf2565b9050611ed56040830186611b3f565b611ee26060830185611c81565b611eef6080830184611c57565b9695505050505050565b600081519050919050565b600082825260208201905092915050565b6000819050602082019050919050565b6000611f318383611ce8565b905092915050565b6000602082019050919050565b6000611f5182611ef9565b611f5b8185611f04565b935083602082028501611f6d85611f15565b8060005b85811015611fa95784840389528151611f8a8582611f25565b9450611f9583611f39565b925060208a01995050600181019050611f71565b50829750879550505050505092915050565b600081519050919050565b600082825260208201905092915050565b6000819050602082019050919050565b6000611ff38383611d21565b60208301905092915050565b6000602082019050919050565b600061201782611fbb565b6120218185611fc6565b935061202c83611fd7565b8060005b8381101561205d5781516120448882611fe7565b975061204f83611fff565b925050600181019050612030565b5085935050505092915050565b600060408201905081810360008301526120848185611f46565b90508181036020830152612098818461200c565b90509392505050565b600081519050919050565b600082825260208201905092915050565b6000819050602082019050919050565b6120d681611b33565b82525050565b6120e581611ac8565b82525050565b600060a08301600083015184820360008601526121088282611ce8565b915050602083015184820360208601526121228282611ce8565b915050604083015161213760408601826120cd565b50606083015161214a60608601826120dc565b50608083015161215d6080860182611d21565b508091505092915050565b600061217483836120eb565b905092915050565b6000602082019050919050565b6000612194826120a1565b61219e81856120ac565b9350836020820285016121b0856120bd565b8060005b858110156121ec57848403895281516121cd8582612168565b94506121d88361217c565b925060208a019950506001810190506121b4565b50829750879550505050505092915050565b600060208201905081810360008301526122188184612189565b905092915050565b600080fd5b600080fd5b7f4e487b7100000000000000000000000000000000000000000000000000000000600052604160045260246000fd5b61226282611be1565b810181811067ffffffffffffffff821117156122815761228061222a565b5b80604052505050565b6000612294611a94565b90506122a08282612259565b919050565b600067ffffffffffffffff8211156122c0576122bf61222a565b5b6122c982611be1565b9050602081019050919050565b82818337600083830152505050565b60006122f86122f3846122a5565b61228a565b90508281526020810184848401111561231457612313612225565b5b61231f8482856122d6565b509392505050565b600082601f83011261233c5761233b612220565b5b813561234c8482602086016122e5565b91505092915050565b60008060006060848603121561236e5761236d611a9e565b5b600084013567ffffffffffffffff81111561238c5761238b611aa3565b5b61239886828701612327565b935050602084013567ffffffffffffffff8111156123b9576123b8611aa3565b5b6123c586828701612327565b92505060406123d686828701611af1565b9150509250925092565b7f4f6e6c79206f776e65722063616e20737461727420766f74696e672121000000600082015250565b6000612416601d83611b9d565b9150612421826123e0565b602082019050919050565b6000602082019050818103600083015261244581612409565b9050919050565b7f566f74696e672053746172746564212100000000000000000000000000000000600082015250565b6000612482601083611b9d565b915061248d8261244c565b602082019050919050565b600060208201905081810360008301526124b181612475565b9050919050565b7f4e487b7100000000000000000000000000000000000000000000000000000000600052602260045260246000fd5b600060028204905060018216806124ff57607f821691505b602082108103612512576125116124b8565b5b50919050565b7f566f74696e67206e6f74207374617274656420796574206f7220656e6465642160008201527f2100000000000000000000000000000000000000000000000000000000000000602082015250565b6000612574602183611b9d565b915061257f82612518565b604082019050919050565b600060208201905081810360008301526125a381612567565b9050919050565b7f4f776e65722063616e206e6f7420766f74652121000000000000000000000000600082015250565b60006125e0601483611b9d565b91506125eb826125aa565b602082019050919050565b6000602082019050818103600083015261260f816125d3565b9050919050565b7f566f746572206e6f742072656769737465726564212100000000000000000000600082015250565b600061264c601683611b9d565b915061265782612616565b602082019050919050565b6000602082019050818103600083015261267b8161263f565b9050919050565b7f416c726561647920766f74656421210000000000000000000000000000000000600082015250565b60006126b8600f83611b9d565b91506126c382612682565b602082019050919050565b600060208201905081810360008301526126e7816126ab565b9050919050565b7f4e487b7100000000000000000000000000000000000000000000000000000000600052603260045260246000fd5b7f43616e646964617465206e6f7420726567697374657265640000000000000000600082015250565b6000612753601883611b9d565b915061275e8261271d565b602082019050919050565b6000602082019050818103600083015261278281612746565b9050919050565b7f4e487b7100000000000000000000000000000000000000000000000000000000600052601160045260246000fd5b60006127c382611c4d565b91507fffffffffffffffffffffffffffffffffffffffffffffffffffffffffffffffff82036127f5576127f4612789565b5b600182019050919050565b7f566f746564202121000000000000000000000000000000000000000000000000600082015250565b6000612836600883611b9d565b915061284182612800565b602082019050919050565b6000602082019050818103600083015261286581612829565b9050919050565b7f4e6f2063616e6469646174657320726567697374657265640000000000000000600082015250565b60006128a2601883611b9d565b91506128ad8261286c565b602082019050919050565b600060208201905081810360008301526128d181612895565b9050919050565b7f566f74696e67206973207374696c6c206f6e676f696e67000000000000000000600082015250565b600061290e601783611b9d565b9150612919826128d8565b602082019050919050565b6000602082019050818103600083015261293d81612901565b9050919050565b7f4f6e6c79206f776e65722063616e2077686974656c697374207468652061646460008201527f7265737365732121000000000000000000000000000000000000000000000000602082015250565b60006129a0602883611b9d565b91506129ab82612944565b604082019050919050565b600060208201905081810360008301526129cf81612993565b9050919050565b7f566f74657220616c726561647920726567697374657265642121000000000000600082015250565b6000612a0c601a83611b9d565b9150612a17826129d6565b602082019050919050565b60006020820190508181036000830152612a3b816129ff565b9050919050565b7f566f746572207265676973746572656421210000000000000000000000000000600082015250565b6000612a78601283611b9d565b9150612a8382612a42565b602082019050919050565b60006020820190508181036000830152612aa781612a6b565b9050919050565b7f4f6e6c79206f776e65722063616e2072656769737465722043616e646964617460008201527f6521210000000000000000000000000000000000000000000000000000000000602082015250565b6000612b0a602383611b9d565b9150612b1582612aae565b604082019050919050565b60006020820190508181036000830152612b3981612afd565b9050919050565b7f4f776e65722063616e206e6f7420706172746963697061746521210000000000600082015250565b6000612b76601b83611b9d565b9150612b8182612b40565b602082019050919050565b60006020820190508181036000830152612ba581612b69565b9050919050565b7f43616e64696461746520616c7265616479207265676973746572656400000000600082015250565b6000612be2601c83611b9d565b9150612bed82612bac565b602082019050919050565b60006020820190508181036000830152612c1181612bd5565b9050919050565b7f43616e6469646174652072656769737465726564212100000000000000000000600082015250565b6000612c4e601683611b9d565b9150612c5982612c18565b602082019050919050565b60006020820190508181036000830152612c7d81612c41565b9050919050565b7f4f6e6c79206f776e65722063616e2073746f7020766f74696e67212100000000600082015250565b6000612cba601c83611b9d565b9150612cc582612c84565b602082019050919050565b60006020820190508181036000830152612ce981612cad565b9050919050565b7f566f74696e672073746f70706564212100000000000000000000000000000000600082015250565b6000612d26601083611b9d565b9150612d3182612cf0565b602082019050919050565b60006020820190508181036000830152612d5581612d19565b905091905056fea2646970667358221220a9b03d24e64a417b779e7ca63c0f86007d2db76948b3ab71e8310c385a8bdc3864736f6c634300080d0033",
  "immutableReferences": {},
  "source": "// SPDX-License-Identifier: GPL-3.0\r\n\r\npragma solidity ^0.8.13;\r\n\r\ncontract Voting {\r\n\r\n    address public owner;\r\n    address public winnerAddress;\r\n    string public eventName;\r\n    uint public totalVote;\r\n    bool votingStarted;\r\n\r\n    struct Candidate {\r\n        string name;\r\n        string uid;\r\n        bool registered;\r\n        address candidateAddress;\r\n        uint votes;\r\n    }\r\n\r\n    struct Voter {\r\n        bool registered;\r\n        bool voted;\r\n    }\r\n\r\n    struct WinnerInfo {\r\n        string name;\r\n        string uid;\r\n        uint votes;\r\n    }\r\n\r\n    event success(string msg);\r\n    mapping(address => uint) public candidates;\r\n    Candidate[] public candidateList;\r\n    mapping(address => Voter) public voterList;\r\n\r\n    constructor(string memory _eventName) {\r\n        owner = msg.sender;\r\n        eventName = _eventName;\r\n        totalVote = 0;\r\n        votingStarted = false;\r\n    }\r\n\r\n    function registerCandidates(string memory _name, string memory _uid, address _candidateAddress) external {\r\n        require(msg.sender == owner, \"Only owner can register Candidate!!\");\r\n        require(_candidateAddress != owner, \"Owner can not participate!!\");\r\n        require(candidates[_candidateAddress] == 0, \"Candidate already registered\");\r\n        Candidate memory candidate = Candidate({\r\n            name: _name,\r\n            uid: _uid,\r\n            registered: true,\r\n            votes: 0,\r\n            candidateAddress: _candidateAddress\r\n        });\r\n        if (candidateList.length == 0) { // not pushing any candidate on location zero;\r\n            candidateList.push();\r\n        }\r\n        candidates[_candidateAddress] = candidateList.length;\r\n        candidateList.push(candidate);\r\n        emit success(\"Candidate registered!!\");\r\n    }\r\n\r\n    function whiteListAddress(address _voterAddress) external {\r\n        require(_voterAddress != owner, \"Owner can not vote!!\");\r\n        require(msg.sender == owner, \"Only owner can whitelist the addresses!!\");\r\n        require(voterList[_voterAddress].registered == false, \"Voter already registered!!\");\r\n        Voter memory voter = Voter({\r\n            registered: true,\r\n            voted: false\r\n        });\r\n\r\n        voterList[_voterAddress] = voter;\r\n        emit success(\"Voter registered!!\");\r\n    }\r\n\r\n    function startVoting() external {\r\n        require(msg.sender == owner, \"Only owner can start voting!!\");\r\n        votingStarted = true;\r\n        emit success(\"Voting Started!!\");\r\n    }\r\n\r\n    function putVote(address _candidateAddress) external {\r\n        require(votingStarted == true, \"Voting not started yet or ended!!\");\r\n        require(msg.sender != owner, \"Owner can not vote!!\");\r\n        require(voterList[msg.sender].registered == true, \"Voter not registered!!\");\r\n        require(voterList[msg.sender].voted == false, \"Already voted!!\");\r\n        require(candidateList[candidates[_candidateAddress]].registered == true, \"Candidate not registered\");\r\n\r\n        candidateList[candidates[_candidateAddress]].votes++;\r\n        voterList[msg.sender].voted = true;\r\n\r\n        uint candidateVotes = candidateList[candidates[_candidateAddress]].votes;\r\n\r\n        if (totalVote < candidateVotes) {\r\n            totalVote = candidateVotes;\r\n            winnerAddress = _candidateAddress;\r\n        }\r\n        emit success(\"Voted !!\");\r\n    }\r\n\r\n    function stopVoting() external {\r\n        require(msg.sender == owner, \"Only owner can stop voting!!\");\r\n        votingStarted = false;\r\n        emit success(\"Voting stopped!!\");\r\n    }\r\n\r\n    function getAllCandidateVotes() external view returns (string[] memory uids, uint[] memory votes) {\r\n        uint candidateCount = candidateList.length;\r\n        uids = new string[](candidateCount);\r\n        votes = new uint[](candidateCount);\r\n\r\n        for (uint i = 0; i < candidateCount; i++) {\r\n            uids[i] = candidateList[i].uid; // Assuming uid is a property of the Candidate struct\r\n            votes[i] = candidateList[i].votes; // Assuming votes is a property of the Candidate struct\r\n        }\r\n    }\r\n\r\n    function getAllCandidate() external view returns (Candidate[] memory list) {\r\n        return candidateList;\r\n    }\r\n\r\n    function votingStatus() external view returns (bool) {\r\n        return votingStarted;\r\n    }\r\n\r\n    function getWinner() public view returns (WinnerInfo[] memory winners) {\r\n    require(candidateList.length > 0, \"No candidates registered\");\r\n    require(!votingStarted, \"Voting is still ongoing\"); // Ensure voting has ended\r\n\r\n    // Find the maximum votes\r\n    uint maxVotes = 0;\r\n    for (uint i = 0; i < candidateList.length; i++) {\r\n        if (candidateList[i].votes > maxVotes) {\r\n            maxVotes = candidateList[i].votes;\r\n        }\r\n    }\r\n\r\n    // Count how many candidates have the maximum votes\r\n    uint winnerCount = 0;\r\n    for (uint i = 0; i < candidateList.length; i++) {\r\n        if (candidateList[i].votes == maxVotes) {\r\n            winnerCount++;\r\n        }\r\n    }\r\n\r\n    // Create an array to hold the winners\r\n    winners = new WinnerInfo[](winnerCount);\r\n    uint index = 0;\r\n    for (uint i = 0; i < candidateList.length; i++) {\r\n        if (candidateList[i].votes == maxVotes) {\r\n            winners[index] = WinnerInfo({\r\n                name: candidateList[i].name,\r\n                uid: candidateList[i].uid,\r\n                votes: candidateList[i].votes\r\n            });\r\n            index++;\r\n        }\r\n    }\r\n}\r\n}",
  "sourcePath": "D:\\new project\\Voting_dapp\\contract_folder\\contracts\\Voting.sol",
  "compiler": {
    "name": "solc",
    "version": "0.8.13+commit.abaa5c0e.Emscripten.clang"
  },
  "schemaVersion": "3.4.16",
  "updatedAt": "2024-12-25T05:22:39.341Z",
  "networkType": "ethereum",
  "devdoc": {
    "kind": "dev",
    "methods": {},
    "version": 1
  },
  "userdoc": {
    "kind": "user",
    "methods": {},
    "version": 1
  }
}